:020000040800F2
:1000000008720020A1020008650E0008C103000864
:10001000610E0008510A0008910F0008000000005E
:10002000000000000000000000000000670E000853
:10003000150B0008000000000F030008690E0008FF
:10004000BB020008BB020008BB020008BB0200089C
:10005000BB020008BB020008BB020008BB0200088C
:10006000BB020008BB020008BB020008BB0200087C
:10007000550A0008BB020008750A0008BB02000808
:10008000950A0008B50A0008BB020008BB02000878
:10009000BB020008BB020008BB020008BB0200084C
:1000A000BB020008BB020008BB020008BB0200083C
:1000B000BB020008390F0008650F0008BB020008EA
:1000C000BB020008BB020008BB020008BB0200081C
:1000D000BB020008BB020008BB020008BB0200080C
:1000E000BB020008BB020008BB020008BB020008FC
:1000F000BB020008BB020008BB020008BB020008EC
:10010000BB020008BB020008BB020008BB020008DB
:10011000BB020008BB020008BB020008BB020008CB
:10012000BB020008BB020008D50A0008BB02000899
:10013000BB020008BB020008BB020008BB020008AB
:10014000BB020008BB020008BB020008BB0200089B
:10015000BB020008BB020008F50A0008BB02000849
:10016000BB020008BB020008BB020008BB0200087B
:10017000BB020008BB020008BB0200080000000030
:10018000BB020008BB020008BB020008BB0200085B
:10019000BB020008BB020008BB0200080000000010
:1001A000BB020008BB020008BB02000800F002F816
:1001B00000F066F80AA090E8000C82448344AAF19B
:1001C0000107DA4501D100F05BF8AFF2090EBAE899
:1001D0000F0013F0010F18BFFB1A43F0010318477B
:1001E000F4AA000014AB000010F8013B0A4413F01D
:1001F000030408BF10F8014B1D1108BF10F8015B84
:10020000641E05D010F8016B641E01F8016BF9D172
:10021000002D15D010F8014B03F00C030C2BA1EBB3
:1002200004040ABF10F8013BA4EB8314A4EB0324DD
:1002300005F1010314F8016B5B1E01F8016BF9D5A0
:10024000914238BF10F8013BD1D3704700230024FE
:1002500000250026103A28BF78C1FBD8520728BFD6
:1002600030C148BF0B6070471FB508F09CFF9DE888
:10027000030000F03BFA00F029F91FBD10B510BDD6
:1002800000F0EEFA1146FFF7EFFF00F0DCFB00F0A4
:100290002BFB03B4FFF7F2FF03BC00F05FFB000091
:1002A0000948804709480047FEE7FEE7FEE7FEE70A
:1002B000FEE7FEE7FEE7FEE7FEE7FEE70448054946
:1002C000054A064B70470000710E0008AD0100089A
:1002D00008520020087200200862002008620020F6
:1002E000EFF3108072B6704780F310887047424A6F
:1002F0001368012B04D04FF0010313603F4A1060D4
:100300003F4A11603F484FF0805101607047EFF362
:10031000108272B63848016851B34FF00001016095
:100320003648016891B1EFF309811EF0100F08BF44
:1003300021ED108B21E9F00F4FF000041EF0100F9B
:1003400008BF012441F8044D006801602C49096888
:10035000096808C9B1E8F00F002B18BFB1EC108B89
:1003600081F309884EF0100E002B18BF2EF0100EEE
:1003700082F310884EF0040E704721490860EFF3B5
:10038000148222F0040282F314881C494FF000000A
:10039000086019494FF0010008601B481B49D0F85C
:1003A000002041EA0201016016484FF080510160CF
:1003B00017480068006880F3088861B662B6704725
:1003C0001EF0040F0CBFEFF30880EFF3098020E963
:1003D000F00F40F804ED40F804ED1EF0040F0CBFE0
:1003E00080F3088880F3098800B506F027FC5DF8E3
:1003F00004EB4EF0040E70472C1100202411002055
:100400002811002004ED00E020ED00E00000FFFFD7
:1004100008ED00E010B54C1084EA530404D54042C6
:10042000C1F1000138BF491E1B4204D55242C3F13D
:10043000000338BF5B1E00F08EF814F0804F04D02C
:100440004042C1F1000138BF491E14F0004F04D0F2
:100450005242C3F1000338BF5B1E10BD40EA0103E6
:1004600010B59B070FD1042A0DD310C808C9121F5D
:100470009C42F8D020BA19BA884201D9012010BD97
:100480004FF0FF3010BD1AB1D30703D0521C07E064
:10049000002010BD10F8013B11F8014B1B1B07D1C8
:1004A00010F8013B11F8014B1B1B01D1921EF1D139
:1004B000184610BD02F0FF0343EA032242EA02425B
:1004C00000F0CDB8704770477047000070B5064C1B
:1004D0007C44064D7D4403E0206820448047241D71
:1004E000AC42F9D170BD000020A8000020A8000097
:1004F00000487047D851002070B5064600F0D6F885
:10050000056806F10B0020F00704B4429CBF0020F0
:1005100070BD2B466A68BAB11068A04210D304F1CE
:10052000080188423CBF5068586007D351681019D1
:1005300041601168091B016058601460101D70BD96
:1005400013465268002AE7D12146284600F0BAF83F
:100550000028DED170BD53EA020C00F069802DE95D
:10056000F04B4FF00006002B1FBFB3FA83F503FAE0
:1005700005F424FA05F65E4012BF1643B2FA82F57E
:1005800002FA05F4C5F120051EBF22FA05FC44EA73
:100590000C04203556EA044C4FEA144418BF641C7E
:1005A0004FF000084FF00009904271EB030C39D373
:1005B000002919BFB1FA81F701FA07F6B0FA80F7FE
:1005C00000FA07F6C7F120071EBF20FA07FC46EA2B
:1005D0000C062037B6FBF4FCA7EB0507103F07F02D
:1005E0001F0BCBF120060CFA0BFB2CFA06F644BFCE
:1005F000B3460026202FA4BF5E464FF0000B5BEAF7
:10060000060C08BF4FF0010B19EB0B09ABFB027C8A
:1006100048EB0608C01B06FB02CC0BFB03CC71EBBE
:100620000C01C1E70B46024641464846BDE8F08B47
:1006300013B54FF000004FF00001AFF30080BDE8AC
:100640001C40704710B500F035F8006810BD10B5BB
:10065000044600F02FF8046010BD4FF0000204299A
:10066000C0F0128010F0030C00F09F80CCF1040C5D
:10067000BCF1020F18BF00F8012BA8BF20F8022B15
:10068000A1EB0C0100F091B85FEAC17C24BF00F837
:10069000012B00F8012B48BF00F8012B704700F038
:1006A000A9B8000000487047A451002000487047D6
:1006B000AC51002000487047A4510020704770479B
:1006C0007047704738B504460A4600206946AFF3C4
:1006D0000080002808BF38BD02460099204600F07F
:1006E000E9F8012038BD012000F012B9F8B5AFF3E8
:1006F0000080054600200C46102000BF0646A819C1
:10070000A0420DD9324669460020AFF300800700B1
:1007100008BF00F0FDF80098A04218BF0546C419B4
:10072000FFF7C4FF05600746F01D20F007004619DB
:10073000284600F00AF8B44208BFF8BDA21B3146B3
:100740003868BDE8F84000F0B5B800210160C0E9A4
:10075000011070471020704770B50446051FFFF761
:10076000A5FF0068002C14BF446870BD002C18BFA2
:10077000AC423CBF20466468F8D301680A18AA421C
:1007800018BF456003D12A680546114401602868F6
:100790004119A1421CBF6C6070BD6168696021682D
:1007A0000844286070BD4FF0000200B5134694461F
:1007B0009646203922BFA0E80C50A0E80C50B1F1B9
:1007C0002001BFF4F7AF090728BFA0E80C5048BFCD
:1007D0000CC05DF804EB890028BF40F8042B08BF6B
:1007E000704748BF20F8022B11F0804F18BF00F867
:1007F000012B704710B500F00EF8016919B1002205
:100800000261884701E08068804700F076F80000C8
:1008100010B500F072F870B500F048F804680546AD
:10082000A4B92020FFF768FE040011D00949002078
:100830002C60C4E900010849A16020732061606157
:100840000649A06109B100F06AF8E061204670BD78
:1008500000F053F80000000011080008000000003C
:100860007546FFF71FFFAE4605006946534620F068
:100870000700854618B020B5FFF720FDBDE82040F1
:100880004FF000064FF000074FF000084FF0000B4C
:1008900021F00701AC46ACE8C009ACE8C009ACE8FF
:1008A000C009ACE8C0098D46704700000048704799
:1008B000E0510020034640688C46002818BF88425B
:1008C0003CBF03464068F8D318681844884207D0F4
:1008D0000CF1030020F00700001D411A521A0146D6
:1008E000081D0A60FFF738BF10B50446AFF300805B
:1008F0002046BDE81040FFF7CCBC10B5002000F04A
:1009000039F8FFF7BBFCBDE81040012000F026B825
:1009100010B500F037F8BDE8104000F026B810B56B
:100920008820FFF7E9FD002801D00021017010BDEB
:10093000802902D808B1017809B10020704701214F
:1009400000F8081B704718B100F10802914201D06D
:1009500000207047002101707047000001491820F5
:10096000ABBEFEE7260002007047002801D0FFF76B
:10097000F5BF704710B500F047F8BDE81040FFF72D
:10098000F4BF000010B5012805D0002103A000F03D
:1009900021F8012010BD09A1F8E700005349475292
:1009A000544D454D3A204F7574206F66206865613F
:1009B00070206D656D6F7279000000003A20486507
:1009C0006170206D656D6F727920636F72727570E2
:1009D0007465640070B505460C460A2000E06D1C85
:1009E00000F02AF835B128780028F8D102E0641C1C
:1009F00000F022F814B120780028F8D1BDE870404A
:100A00000A2000F019B8000010B5002102A0FFF77D
:100A1000E1FF012010BD0000534947414252543AC2
:100A20002041626E6F726D616C207465726D696ECB
:100A30006174696F6E00000008B569468DF80000AA
:100A40000320ABBE08BD10B507F082F8002010BD32
:100A500000BFFEE710B520220121054803F0B3FED8
:100A600020B120220121024803F08EFE10BD0000BB
:100A70000060024010B520220321054803F0A3FEC8
:100A800020B120220321024803F07EFE10BD0000A9
:100A90000060024010B520220521054803F093FEB6
:100AA00020B120220521024803F06EFE10BD000097
:100AB0000060024010B520220621054803F083FEA5
:100AC00020B120220621024803F05EFE10BD000086
:100AD0000060024010B520220221054803F073FE99
:100AE00020B120220221024803F04EFE10BD00007A
:100AF0000064024010B520220721054803F063FE80
:100B000020B120220721024803F03EFE10BD000064
:100B10000064024070472DE9F04104460D46164638
:100B20001F462A2000F044F904F1340188B200F095
:100B30002FF906F1340188B200F02AF92B2000F0D9
:100B400037F905F1280188B200F022F907F12801F0
:100B500088B200F01DF92C2000F02AF9BDE8F081E0
:100B600010B56F4A126890696D4A126892691268EE
:100B700091688847642200236A48006802F0A2FA5C
:100B8000674A12689069664A1268926912685168E9
:100B90008847642200236348006802F093FA6422C5
:100BA00000236048006802F08DFA112000F000F97F
:100BB000782200235B48006802F084FA362000F0B7
:100BC000F7F8002000F0EDF83A2000F0F1F80520E9
:100BD00000F0E7F8B22000F0EBF80C2000F0E1F8AC
:100BE0000C2000F0DEF8002000F0DBF8332000F0ED
:100BF000D8F8332000F0D5F8B72000F0D9F8352028
:100C000000F0CFF8BB2000F0D3F8192000F0C9F8AD
:100C1000C02000F0CDF82C2000F0C3F8C22000F076
:100C2000C7F8012000F0BDF8C32000F0C1F8122081
:100C300000F0B7F8C42000F0BBF8202000F0B1F8B5
:100C4000C62000F0B5F80F2000F0ABF8D02000F07F
:100C5000AFF8A42000F0A5F8A12000F0A2F8E02051
:100C600000F0A6F8D02000F09CF8042000F099F8DD
:100C70000D2000F096F8112000F093F8132000F0FA
:100C800090F82B2000F08DF83F2000F08AF85420D7
:100C900000F087F84C2000F084F8182000F081F86C
:100CA0000D2000F07EF80B2000F07BF81F2000F0F4
:100CB00078F8232000F075F8E12000F079F8D020D2
:100CC00000F06FF8042000F06CF80C2000F069F8D8
:100CD000112000F066F8132000F063F82C2000F0DB
:100CE00060F83F2000F05DF8442000F05AF85120F1
:100CF00000F057F82F2000F054F81F2000F051F8B2
:100D00001F2000F04EF8202000F04BF8232000F0C8
:100D100048F8212000F04CF8292000F049F810BDD7
:100D200000000020040000202DE9F05F07468846FF
:100D300015461E46DDF82890002408EB0600401EEC
:100D400083B27819401E82B241463846FFF7E3FE6F
:100D5000A24619E04FF0000B10E019F8140000F063
:100D600020F8012101EB440119F8010000F019F805
:100D7000601C84B20BF101001FFA80FBB345ECDB71
:100D80000AF101001FFA80FAAA45E3DBBDE8F09FF3
:100D900010B50446201200F025F8E0B200F022F869
:100DA00010BD10B50446204600F01CF810BD000030
:100DB00010B504460A4A12685069094A1268526915
:100DC000126891688847204600F00CF8044A1268BF
:100DD0005069034A1268526912685168884710BD09
:100DE0000000002070B5044600252BE01B4A126865
:100DF000D0681A4A1268D26812689168884704F06D
:100E0000800048B1154A12681069144A12681269C4
:100E100012685168884708E0104A126810690F4A42
:100E2000126812691268916888470C4A1268D06883
:100E30000A4A1268D2681268516888476006040E30
:100E4000681CC5B2082DD1DB044A12685069034AF8
:100E50001268526912685168884770BD000000200E
:100E600000BFFEE77047704710B506F04DF910BDA2
:100E700008B52D48006840F470002B4908602B48E5
:100E8000006840F0010029490860284808300068DF
:100E900040F080002549083108600020009002E001
:100EA0000098401C00904CF2503100988842F7D3D3
:100EB0001E480830006840F090001C490831086066
:100EC0000020009002E00098401C00904CF250314D
:100ED00000988842F7D315480830006820F00300D6
:100EE00012490831086011480068114908400F494B
:100EF00008600846006820F48020086000200B4944
:100F00000831086000BF0948083000680020002848
:100F1000F9D108480549091D0860002003490C3132
:100F2000086006F0C7FE08BD88ED00E0003802400A
:100F3000FFFFF6FE1030002410B50221084807F02C
:100F40003FFA18B10221064807F037FA0421044895
:100F500007F036FA18B10421014807F02EFA10BD47
:100F60000004004010B50221084807F029FA18B122
:100F70000221064807F021FA0421044807F020FA6C
:100F800018B10421014807F018FA10BD000800400C
:100F900000BFFEE72DE9F04788B000210C460D4662
:100FA0000E460F4600208046814606910791049028
:100FB000059002910391A048B0F900009F49086094
:100FC0009D48B0F902009E4908609B48B0F90400B2
:100FD0009C4908609C48B0F900009C4908609A4808
:100FE000B0F902009A4908609748B0F9040099499D
:100FF00008604FF0000A16E0904850F82A000419E3
:1010000045EBE0758E4850F82A00861947EBE077EB
:101010008C4850F82A0010EB080849EBE0790AF1F7
:10102000010000F0FF0ABAF1050FE5DB4FF0000AFE
:1010300021E0864850F82A00C317DDE90621801810
:101040004B41CDE90603824850F82A00C317DDE979
:10105000041240185341CDE904037E4850F82A0099
:10106000C317DDE9022180184B41CDE902030AF1E3
:10107000010000F0FF0ABAF1010FDADB05220023BC
:1010800020462946FFF7C6F9CDE9000108F018F817
:1010900000EE100ADFED700A80EE201ABDEEC10AE4
:1010A00010EE100A00B26D49088005220023304678
:1010B0003946FFF7AFF9CDE9000108F001F800EE7D
:1010C000100ADFED650A80EE201ABDEEC10A10EEAF
:1010D000100A00B261494880052200234046494673
:1010E000FFF798F9CDE9000107F0EAFF00EE100ADA
:1010F000DFED590A80EE201ABDEEC10A10EE100A8B
:1011000000B25649888001220023DDE90601FFF77D
:1011100081F9CDE9000107F0D3FF00EE100ADFED01
:10112000500A80EE201ABDEEC10A10EE100A00B27D
:101130004C49088001220023DDE90401FFF76AF928
:10114000CDE9000107F0BCFF00EE100ADFED440A14
:1011500080EE201ABDEEC10A10EE100A00B241491D
:10116000488001220023DDE90201FFF753F9CDE9B0
:10117000000107F0A5FF00EE100ADFED390A80EE4E
:10118000201ABDEEC10A10EE100A00B2354988805F
:101190004FF0000A21E0CAF10300284951F820006D
:1011A000CAF10401254A42F82100CAF1030024498A
:1011B00051F82000CAF10401214A42F82100CAF185
:1011C0000300204951F82000CAF104011D4A42F8E9
:1011D00021000AF1010000F0FF0ABAF1040FDADB86
:1011E0004FF0000A21E0CAF1FF30184951F8200001
:1011F000CAF10001154A42F82100CAF1FF30144932
:1012000051F82000CAF10001114A42F82100CAF148
:10121000FF30104951F82000CAF100010D4A42F890
:1012200021000AF1010000F0FF0ABAF1000FDADB39
:1012300008B0BDE8F0870000BE100020C0120020FA
:10124000D4120020E8120020B8100020AC000020CA
:10125000B0000020B400002000008046BE00002046
:1012600033338341B800002010B500244FF40073DD
:10127000012200211C4804F08FFA1C4A1268106AEF
:101280001A4A1268126A12685168884701F006FB10
:10129000164A1268D069154A1268D26912685168F4
:1012A000884701F0FBFA09E0601CC4B2322C03DD70
:1012B00001F08CF9002010BD01F0F0FA0B4A126821
:1012C000106A0A4A1268126A12681169884700286F
:1012D000EAD1064A1268D069044A1268D2691268D3
:1012E000916888470120E6E70004024000000020E2
:1012F00070B504460025BC2C01DB012510E0622CF2
:1013000001DB02250CE02A2C01DB032508E0142C6C
:1013100001DB042504E00A2C01DB052500E006259D
:101320002A461A21D02000F081FC70BD70B5044619
:1013300015465A1BD4ED000A91ED011A00EE102A51
:10134000B8EEC00A41EE000AC4ED000A94ED000AAE
:10135000D1ED030AB4EEE00AF1EE10FA04DB91EDF0
:10136000030A84ED000A10E094ED000AD1ED030AAF
:10137000F1EE600AB4EEE00AF1EE10FA05D891ED54
:10138000030AB1EE400A84ED000AD4ED000A91EDA3
:10139000001A00EE102AF8EEC01AB0EE600A01EE54
:1013A000210A91ED021A6668961B00EE906AF8EE2B
:1013B000E00A01EE200ABDEEC00A10EE100A6668CF
:1013C000A6606260E56070BD70B5054600244FF40C
:1013D0000073012200211A4804F0DEF9002625E0FE
:1013E000184A1268D069174A1268D269126891685F
:1013F000884701F053FA134A1268D069114A1268FB
:10140000D2691268516888476006040E0D4A126856
:10141000106A0C4A1268126A12681169884708B18A
:10142000601CC4B201F03AFA701CC6B2082ED7DBB9
:1014300015B101F03BF801E001F092F8204670BDD3
:10144000000402400000002070B504464FF4007311
:1014500001221146214804F09FF9214A1268D069FF
:101460001F4A1268D269126891688847002531E0E6
:1014700004F0800048B11A4A1268106A184A1268CB
:10148000126A12685168884708E0154A1268106AA3
:10149000134A1268126A1268916888476006040E3F
:1014A00001F0FCF90E4A1268D0690D4A1268D2693F
:1014B00012685168884701F0F1F9094A1268D06949
:1014C000074A1268D26912689168884701F0E6F904
:1014D000681CC5B2082DCBDB70BD000000040240C3
:1014E0000000002010B5002480226B21D02000F0E5
:1014F0009DFB642200231048006801F0E3FD0022F8
:101500006B21D02000F092FB032000F0B8FE0020F9
:1015100000F002FFC82000F049F801226B21D02022
:1015200000F084FB00226C21D02000F07FFBC8205B
:1015300000F03CF8002010BD040000202DE9F0412F
:1015400006460F4614461D4601F05AF910B901200F
:10155000BDE8F0813046FFF777FFFFF785FE18B949
:1015600001F034F80120F3E73846FFF76DFFFFF78D
:101570007BFE01F045F9711CC8B2FFF765FFFFF76C
:1015800073FE0DE0012C04D10020FFF71DFF287031
:1015900003E00120FFF718FF28706D1C601EC4B225
:1015A000002CEFD101F012F80020D1E770B504460D
:1015B000B4F57A7F01DD4FF47A74042C00DA042448
:1015C0004FF47A7090FBF4F0401EC5B22A46192100
:1015D000D02000F02BFB0546264604EBD671C1F364
:1015E0004F00FFF785FE70BDF0B504460D46991A11
:1015F000D5ED000A66688E1B00EE106AB8EEC00AD0
:1016000060EE800A95ED011A00EE101AF8EEC01A8D
:10161000B0EE600A01EE210A0227666807FB161683
:10162000A7683E4400EE906AF8EEE00A95ED021AD3
:1016300001EE200ABDEEC00A10EE100A6668A66030
:101640006160E260F0BD70B504460D4601F0D8F867
:1016500008B9002070BD2046FFF7F6FEFFF704FE34
:1016600018B900F0B3FF0020F4E72846FFF7ECFEBE
:10167000FFF7FAFD01F0C4F8611CC8B2FFF7E4FE01
:10168000FFF7F2FD0020FFF79FFE064600F068FF1F
:1016900000F09CFF3046DDE72DE9F04180460D4625
:1016A00016461F4601F0ACF810B90120BDE8F081E4
:1016B0004046FFF7C9FEFFF7D7FD18B900F086FFD7
:1016C0000120F3E72846FFF7BFFEFFF7CDFD00241A
:1016D0000AE0385DFFF7B8FEFFF7C6FD18B900F065
:1016E00075FF0020E2E7641CB442F2DB00F06EFFFD
:1016F0000020DBE72DE9F04F87B005460C46914608
:1017000001208DF8100000208DF81100FE4A1268AB
:10171000917CFD4A5268107804AB0222FFF7BCFFAF
:1017200020B14FF0FF3007B0BDE8F08FC822002392
:10173000F648006801F0C6FC00208DF81000F24A5F
:101740001268D17BF04A5268107804AB0122FFF78F
:10175000A3FF10B14FF0FF30E5E7EB4A1268517973
:10176000E94A5268107804AB0122FFF795FF10B1E7
:101770004FF0FF30D7E7E44A1268917CE24A5268A2
:10178000107804AB0122FFF787FF10B14FF0FF3054
:10179000C9E7DD4A1268D17DDB4A5268107804AB94
:1017A0000122FFF779FF10B14FF0FF30BBE7D64AB7
:1017B00012681179D44A5268107804AB0122FFF7FD
:1017C0006BFF10B14FF0FF30ADE70C208DF810002B
:1017D000CD4A12681179CC4A5268107804AB0122C4
:1017E000FFF75AFF10B14FF0FF309CE70F220023A4
:1017F000C648006801F066FCC348806A407A8DF8EC
:101800001000C14A12689178BF4A5268107804AB40
:101810000122FFF741FF10B14FF0FF3083E7BA48D4
:10182000806A007A8DF81000B74A12685178B64A7B
:101830005268107804AB0122FFF72EFF10B14FF071
:10184000FF3070E7B9F1000F07D0AF48806A807AA7
:1018500040F0E0008DF8100004E0AB48806A807A28
:101860008DF81000A84A12689179A74A526810783A
:1018700004AB0122FFF710FF10B14FF0FF3052E729
:10188000B9F1000F07D0A048806AC07A40F0E000AC
:101890008DF8100003E09E48C07A8DF810009A4A37
:1018A0001268D179984A5268107804AB0122FFF788
:1018B000F3FE10B14FF0FF3035E7B9F1000F05D05E
:1018C000C82200239148006801F0FCFB40208DF8FD
:1018D00010008D4A126811798B4A5268107804AB57
:1018E0000122FFF7D9FE10B14FF0FF301BE778203F
:1018F0008DF81000844A12685179834A5268107832
:1019000004AB0122FFF7C8FE10B14FF0FF300AE729
:101910007F4881890A4600237C48006801F0D2FB99
:1019200000208DF81000784A12685179764A526882
:10193000107804AB0122FFF7AFFE10B14FF0FF307B
:10194000F1E6714A1268917A6F4A5268107804ABD6
:101950000222FFF7F3FD10B14FF0FF30E3E69DF8F0
:1019600011009DF8101040EA012B0C209BFBF0F0B9
:10197000C6B20020A86068602860A0606060206037
:10198000824665E0604A1268D17A5F4A52681078F0
:1019900004AB0C22FFF7D2FD10B14FF0FF30C2E6CE
:1019A0009DF811009DF8101040EA012000B2ADF83A
:1019B00008009DF813009DF8121040EA012000B2C3
:1019C000ADF80A009DF815009DF8141040EA0120BA
:1019D00000B2ADF80C00BDF9081020680844206082
:1019E000BDF90A10606808446060BDF90C10A06879
:1019F0000844A0609DF817009DF8161040EA0120E9
:101A000000B2ADF800009DF819009DF8181040EAEA
:101A1000012000B2ADF802009DF81B009DF81A10DD
:101A200040EA012000B2ADF80400BDF900102868BA
:101A300008442860BDF90210686808446860BDF970
:101A40000410A8680844A8600AF1010000F0FF0A29
:101A5000B24597DB2E48D0F800C02868C1170904AA
:101A600041EA10410704624600233846FEF7D2FCE3
:101A700032460023CDE90201FEF7CCFC2860244861
:101A8000D0F800C06868C117090441EA1041070492
:101A9000624600233846FEF7BDFC32460023CDE9FE
:101AA0000201FEF7B7FC68601948D0F800C0A868CA
:101AB000C117090441EA1041070462460023384671
:101AC000FEF7A8FC32460023CDE90201FEF7A2FC96
:101AD000A8600F48D0F804C02068C117090441EA83
:101AE00010410704624600233846FEF793FC324655
:101AF0000023CDE90201FEF78DFC20600448D0F8F8
:101B000004C06068C11705E0F41000200400002044
:101B1000649E0008090441EA10410704624600235C
:101B20003846FEF777FC32460023CDE90201FEF786
:101B300071FC60601148D0F804C0A068C1170904A6
:101B400041EA10410704624600233846FEF762FC72
:101B500032460023CDE90201FEF75CFCA060A068DC
:101B6000002804DDA068A0F58030A06003E0A06834
:101B700000F58030A0600020D5E50000649E0008DC
:101B80000346934201DB104670478B4201DC084656
:101B9000FAE71846F8E710B588B002A905A804F0DE
:101BA00091FA0446072C3FD101A803F059FF9DED9F
:101BB000050AB8EEC00ADDED010A20EE200ABDEEEE
:101BC000C00A8DED050A9DED060AB8EEC00ADDEDEE
:101BD000010A20EE200ABDEEC00A8DED060A9DED39
:101BE000070AB8EEC00ADDED010A20EE200ABDEEBC
:101BF000C00A8DED070A05A803F0DEFA684603F077
:101C0000DBFEBDF80010029848430290BDF80010BA
:101C1000039848430390BDF800100498484304908B
:101C200002A803F0F9F900BF08B010BD70B5064670
:101C30000C46154600F0E4FD08B9002070BD3046A2
:101C4000FFF702FCFFF710FB18B900F0BFFC002003
:101C5000F4E72046FFF7F8FBFFF706FB2846FFF7FF
:101C6000F3FBFFF701FB00F0B1FC00F0C1FD012028
:101C7000E4E700002DE9F0414FF4247526488688FA
:101C8000012440E004EB4402234B33F8122002EB22
:101C90004202224B03EB420204EB44031E4F07EBCC
:101CA00043035B8832F8132000EE902AF8EE600AB6
:101CB000B0EE600A1A4A1268D06C194A1268D26CE7
:101CC00012689168884704EB4400394601EB4000F4
:101CD000808896FBF0F0C31707463A461148006823
:101CE00001F0F0F90F480068407850B90C490968D4
:101CF000C86C0B490968C96C09684A68002190479B
:101D000003E0601C84B2AC42BCDD002005490968D8
:101D10004870BDE8F0810000500100202001002043
:101D200000000020040000202DE9F0410446E07886
:101D300000F0C006E07800F03F05607800F0010098
:101D400098B1EF102846E91705EB5171C910A5EBC2
:101D5000C101491C01F0FF080B48006820B10A4886
:101D6000414602683846904700BF607800F008009E
:101D700030B10548406818B1B011034A516888472E
:101D80000020BDE8F0810000FC120020F0B52DED30
:101D9000048B81B006460F4600253E494968087805
:101DA0006B4603220D21FFF7C9FB20B1072001B0CC
:101DB000BDEC048BF0BD9DF8000000F01F008DF815
:101DC00000009DF8010000F01F008DF801009DF853
:101DD000020000F01F008DF80200002455E056F8C4
:101DE000241057F82420881A002801DB014600E05F
:101DF000414200EE101AB8EEC00ADFED270A80EE6D
:101E0000208A1DF8040068B3244890ED000AB8EE5B
:101E1000400ADFED230A80EE801AF0EE418A05E0E9
:101E20009FED200A28EE800AF0EE408A1DF804009B
:101E3000401EC0B20DF804000028F1D188EE280A37
:101E4000F7EE000A30EE609AB0EEC90A1348D0ED02
:101E5000060AB4EEE00AF1EE10FA15DD0120A0400A
:101E6000054311E00D4890ED040AB4EEC80AF1EE06
:101E700010FA06DC90ED050AB4EEC80AF1EE10FA8D
:101E800002D20120A0400543641C032CA7DB284696
:101E90008DE70000F410002000008047649E0008D9
:101EA00000B04C4554E3853F38B50446214890F8CE
:101EB0002400C0B114B10220009001E00020009085
:101EC0001C4A1268D17B1B4A526810786B4601226B
:101ED000FFF7E2FB10B14FF0FF3038BD9DF8001066
:101EE0001448417423E01348807A10B94FF0FF3052
:101EF000F3E724B10F48407C08B10020EDE714B1AE
:101F00000120009001E0002000900A4A1268D17B75
:101F1000084A526810786B460122FFF7BDFB10B1EA
:101F20004FF0FF30D9E79DF80010024841740020BF
:101F3000D3E70000F410002010B52DED088B6C489D
:101F4000007800284FD000206949087000F0A0F9FF
:101F500000F054FAFFF71EF86648B0F9020000EBF3
:101F6000800042006448654903686548FFF73CFB10
:101F70006449096808446349086040F2B632514236
:101F800060480068FFF7FCFD5E4908605E48006835
:101F900006F0E3FD9FED5D0B53EC102B06F044FEC5
:101FA00041EC190B5B48006806F0D7FD9FED5A0B1A
:101FB00053EC102B06F038FE53EC192B06F092FB75
:101FC00006F09CFD534908604E4800680968401AB5
:101FD000534908604B4800684E4909680844514914
:101FE000086000F029FB50480078002840D000200D
:101FF0004D4908704D4A1268506C4C4A1268526C38
:102000001268D16888474A490860484A1268906C4B
:10201000464A1268926C1268D16888474549086040
:1020200043490968434A1268881800EBD071491087
:10203000414A1160414890ED000AB1EE400ADFEDDF
:10204000400A20EE200ABDEEC00A10EE102A3D48DC
:102050003D4903683D48FFF769F92749086040F2A8
:10206000DC52514224480068FFF78AFD224908608B
:1020700037480078C0B300203549087000232E4847
:10208000344902683448FFF751F940422D4908604D
:102090002948006806F061FD41EC1B0B9FED2F0BFA
:1020A00053EC102B06F0C0FD41EC190B2D480068D5
:1020B00006F053FD41EC1B0B9FED2B0B53EC102B4B
:1020C00006F0B2FD41EC1A0B53EC192B06F00AFB9B
:1020D00041EC180B06F012FD224908600846006822
:1020E000282801DA28200860BDEC088B10BD00000C
:1020F000C6000020B8000020A40000202C00002012
:1021000080120020DC000020E40000206666666685
:102110006666E63FE8000020333333333333D33F82
:10212000C8000020CC000020C500002000000020D6
:102130009C000020A0000020D0000020CC10002037
:102140000000C842A80000201C00002070120020DF
:10215000C40000200C00002060120020CDCCCCCCAC
:10216000CCCCEC3FD40000209A9999999999B93F29
:10217000F0B52DED028B83B006460F46002568466C
:1021800000F0D4F8002447E056F8241057F8242033
:10219000881A002801DB014600E0414200EE101AD7
:1021A000B8EEC00ADFED200A80EE208A684600EB18
:1021B000840090ED000AB5EEC00AF1EE10FA18D0D6
:1021C000684600EB8400D0ED000A88EE200AF7EEA6
:1021D000000A70EE608AB0EEE80A1448D0ED090AF1
:1021E000B4EEE00AF1EE10FA15DD0120A04005433F
:1021F00011E00E4890ED070AB4EEC80AF1EE10FAAD
:1022000006DC90ED080AB4EEC80AF1EE10FA02D22C
:102210000120A0400543641C032CB5DB284603B015
:10222000BDEC028BF0BD000000008047649E0008FA
:10223000014691F90020002A01DD00201EE091F9FD
:102240000020002A01DA042018E091F90120002A78
:1022500001DD012012E091F90120002A01DA0520B8
:102260000CE091F90220002A01DD022006E091F93C
:102270000220002A01DA062000E00720704710B58E
:102280000446E006020E1B21D020FFF7CFFC10BD54
:102290001CB54321D020FFF7D6F98DF8000044216A
:1022A000D020FFF7D0F98DF801004521D020FFF7AD
:1022B000CAF98DF802004621D020FFF7C4F98DF845
:1022C00003004721D020FFF7BEF98DF80400482114
:1022D000D020FFF7B8F98DF805009DF801009DF8B2
:1022E000001040EA012000B20A4908809DF803006E
:1022F0009DF8021040EA012000B2064948809DF88E
:1023000005009DF8041040EA012000B201498880D0
:102310001CBD0000B810002010B50446E006020EF7
:102320001C21D020FFF782FC10BD00007CB50546C3
:102330002E494968087801AB04220D21FFF7FEF809
:1023400008B107207CBD9DF80700C0F301109DF87F
:10235000041001F0E00140EAE1008DF800009DF872
:102360000700C0F381009DF8051001F0E00140EA8C
:10237000E1008DF801009DF8070000F003009DF8D2
:10238000061001F0E00140EAE1008DF802000024AF
:1023900027E01DF8040030B99FED150A05EB840015
:1023A00080ED000A1BE09FED130A05EB840080ED31
:1023B000000A0BE005EB840090ED000ADFED0E0A49
:1023C00020EE200A05EB840080ED000A1DF80400D1
:1023D000401EC0B20DF804000028EBD100BF601C05
:1023E000C4B2032CD5DB0020ACE70000F4100020C1
:1023F000000000007B14AE3E1D5A843F1CB53B21FB
:10240000D020FFF720F98DF800003C21D020FFF705
:102410001AF98DF801003D21D020FFF714F98DF84D
:1024200002003E21D020FFF70EF98DF803003F2176
:10243000D020FFF708F98DF804004021D020FFF7E5
:1024400002F98DF805009DF801009DF8001040EAA2
:10245000012000B20A4908809DF803009DF802108F
:1024600040EA012000B2064948809DF805009DF829
:10247000041040EA012000B2014988801CBD000020
:10248000BE10002070B505462846FFF7D1FE044671
:10249000E81CFFF7CDFE44EAC00084B2A81DFFF798
:1024A000C7FE44EA801084B2204670BD10B5184AB9
:1024B0001268D069164A1268D26912689168884712
:1024C0004FF4007301221146124803F065F9104AD7
:1024D0001268106A0E4A1268126A12689168884778
:1024E00000F0DCF90A4A1268D069094A1268D26918
:1024F00012685168884700F0D1F9054A1268D0691E
:10250000034A1268D26912689168884710BD0000BA
:10251000000000200004024010B503F009FBE0B900
:10252000782004F09FF8782003F0E8F9C82004F040
:102530004BF802F07FFC0948FFF7A4FF044602F0C5
:10254000D3FE40F2731002F01DFBC82002F0FCFD28
:10255000FFF721FB012003F033FF10BDE81000203E
:1025600010B5184A1268D069164A1268D269126802
:10257000916888474FF4007301221146124803F016
:102580000BF9104A1268106A0E4A1268126A126831
:102590005168884700F082F90A4A1268D069094AEE
:1025A0001268D26912685168884700F077F9054AC5
:1025B0001268D069034A1268D26912689168884724
:1025C00010BD0000000000200004024010B54FF4D0
:1025D000007301221146164803F0DEF8154A12680E
:1025E000D069144A1268D269126891688847114A02
:1025F0001268106A0F4A1268126A12689168884756
:1026000000F04CF90B4A1268D0690A4A1268D26984
:10261000126851688847074A1268106A054A1268AA
:10262000126A12685168884700F038F910BD00003E
:10263000000402400000002010B52DED068B88B08C
:1026400006A85F4907AB02AACDE900105D495E48C4
:1026500002F0FCFB5A48008800F4807000287DD00E
:102660009DED020AB8EEC00ADFED580A80EE201A8E
:10267000574880ED001A9DED030AB8EEC00ADFED61
:10268000530A80EE201A534880ED001A9DED040A8B
:10269000B8EEC00ADFED4D0A80EE201A4E4880EDFC
:1026A000001A9DED050AB8EEC00ADFED480A80EE7B
:1026B000201A4A4880ED001A464890ED000AF8EECC
:1026C000000A20EE200A4548D0ED000A20EE200A3C
:1026D0003F48D0ED000AB0EE001A60EE810A3E4895
:1026E00090ED001AB0EE408A00EE818AB0EE480A02
:1026F00001F068FB10EE104A204606F0B3FC41ECF6
:102700001A0B9FED370B53EC102B06F08DFA41ECB2
:10271000190B05F0B5FF344908602F4890ED000A09
:10272000F0EE000A20EE200A2C48D0ED000A20EE40
:10273000200A2748D0ED000AB0EE001A60EE810AA8
:10274000244890ED001AB0EE408A00EE818A90EDA8
:10275000000AF8EE000A20EE200A00E02BE0D0ED9F
:10276000000A20EE200A1C48D0ED000AB0EE001A44
:1027700060EE810A90ED001A00EEC10AF7EE000A41
:1027800070EE208AF0EE680AB0EE480A01F0B0FB65
:1027900010EE104A204606F065FC41EC1A0B9FED46
:1027A000100B53EC102B06F03FFA41EC190B05F01F
:1027B00067FF0E49086008B0BDEC068B10BD000035
:1027C000D4100020BE100020B81000200000804E61
:1027D000D8100020DC100020E0100020E4100020C1
:1027E0006666666666A64C40CC100020D0100020BD
:1027F00041F2883000E0401E0028FCD17047000004
:1028000010B54FF4007301221146224802F0C4FFB4
:10281000214A1268106A204A1268126A12685168C6
:1028200088471D4A1268106A1B4A1268126A1268A9
:102830001169884708B9002010BD174A1268D0698D
:10284000154A1268D26912685168884700F026F864
:10285000114A1268106A104A1268126A1268916866
:1028600088470D4A1268106A0B4A1268126A126889
:102870001169884708B10020DEE700F00FF8064A2A
:102880001268D069044A1268D26912689168884750
:102890000120D1E700040240000000201E2001E0DA
:1028A000411EC8B20028FBD17047000000BF0C4891
:1028B0000068407801280BD10A490968C86C0949A9
:1028C0000968C96C09684A6863219047FFF7D2F923
:1028D0004FF47A7200230248006800F0F3FBE6E749
:1028E0000400002000000020044901604FF48061D2
:1028F000018103A14160032181727047AD28000866
:102900005441534B5F4D55534943000030B589B096
:1029100004460D4640F6164004F08CF841F20410CF
:1029200004F088F840F6014004F084F8C022072142
:10293000524802F0F3FEC023012202214F4802F068
:102940002BFFC023022200214C4802F04CFF4C48D0
:1029500005F0E2FD4FF40041494805F060FE2946CC
:10296000474805F065FD0021454805F060FE00215F
:10297000434805F07CFE0021414805F068FE042133
:102980003F4805F05CFE08213D4805F068FE012245
:102990001146252003F014FF394805F03BFE402185
:1029A000374805F027FE8021354805F02BFE01222F
:1029B0001146462003F004FF012211463A2003F09D
:1029C000FFFE684602F0AEF807212E4801F06BFECC
:1029D0004020069000200290039004900790284821
:1029E000001D0090012001904FF4403008906A468D
:1029F0000721244801F0EAFF0721224801F033FEB5
:102A0000042207211F4801F01BFE102207211D4848
:102A100001F09BFE07211B4801F002FE022119482C
:102A200001F041FE00200690201D0290002003903E
:102A3000202007901248001D0090012001900020E6
:102A400004904FF4403008906A4602210D4801F08E
:102A5000BDFF02210B4801F006FE042202210948B5
:102A600001F0EEFD10220221064801F06EFE022167
:102A7000044801F0D5FD09B030BD0000000402405B
:102A8000001001400064024030B589B004460D4694
:102A900040F6154003F0CEFF41F2110003F0CAFFEB
:102AA00040F6034003F0C6FF60220721524802F0BF
:102AB00035FE6023012202214F4802F06DFE6023A3
:102AC000022200214C4802F08EFE4C4805F024FD05
:102AD0004FF40041494805F0A2FD2946474805F05A
:102AE000A7FC0021454805F0A2FD0021434805F060
:102AF000BEFD0021414805F0AAFD04213F4805F034
:102B00009EFD08213D4805F0AAFD00221146262021
:102B100003F056FE394805F07DFD4021374805F0A9
:102B200069FD8021354805F06DFD00221146112018
:102B300003F046FE00221146102003F041FE6846D5
:102B400001F0F0FF06212E4801F0ADFD4020069077
:102B5000002002900390049007902848001D0090E8
:102B6000012001904FF4403008906A460621244825
:102B700001F02CFF0621224801F075FD04220621F8
:102B80001F4801F05DFD102206211D4801F0DDFD0A
:102B900006211B4801F044FD0521194801F083FD81
:102BA00000200690201D0290002003902020079016
:102BB0001248001D009001200190002004904FF465
:102BC000403008906A4605210D4801F0FFFE0521BE
:102BD0000B4801F048FD04220521094801F030FDB1
:102BE00010220521064801F0B0FD0521044801F03E
:102BF00017FD09B030BD0000000C02400044004049
:102C0000006002402DED028B88B000BF00244FF021
:102C100001084FF00109A24600BF00250026002749
:102C2000B9A207CA05AB07C3BAA207CA02AB07C35A
:102C3000FDF796FF00BFBA4A1268906BB84A126857
:102C4000926B126851688847B5480068806B90EDB8
:102C5000070A10EE101A084606F004FA41EC180BA9
:102C60009FEDB00B53EC102B05F0A2FF12D9AC482E
:102C70000068806B90ED070A10EE101A084606F007
:102C8000F1F941EC180B9FEDA90B53EC102B06F05A
:102C9000C9F800D20125A2480068806B90ED080AAF
:102CA00010EE101A084606F0DDF941EC180B9FED06
:102CB000A10B53EC102B05F07BFF12D9984800684C
:102CC000806B90ED080A10EE101A084606F0CAF95B
:102CD00041EC180B9FED990B53EC102B06F0A2F86A
:102CE00000D201258E480068806B90ED050A10EE39
:102CF000101A084606F0B6F941EC180B9FED910B3F
:102D000053EC102B05F054FF01D9012D78D1BAF105
:102D1000000F22D14FF0010A8C480068C1688B482F
:102D2000006800F0BFF9894800688168874800683A
:102D300000F0B8F97A4A1268906A794A1268926A81
:102D4000126851688847764A1268D06A744A1268D5
:102D5000D26A12685168884700BF01247049096827
:102D6000C86C6F490968C96C09684A686321904753
:102D70006B4A1268D06C6A4A1268D26C12689FED76
:102D8000740A91688847664A1268506A644A1268F1
:102D9000526A1268D1688847C82200236B480068CD
:102DA00000F090F95E490968C86C5D490968C96C12
:102DB00009684A6800219047701CC6B2192E2DD1AF
:102DC0000026574A1268506A554A1268526A1268B9
:102DD00051688847524A1268906A514A1268926A4A
:102DE0001268516888474E4A1268D06A4C4A126885
:102DF000D26A12685168884785B900BFFEE7FFE7CD
:102E0000781CC7B2022F09D10027454A1268D06A40
:102E1000434A1268D26A1268D1688847404A1268E9
:102E200050683F4A12685268126811698847F8B9B9
:102E3000464800680078D8B900BF394A126850681F
:102E4000374A1268526812681169884720B93F48AA
:102E5000006800780028F0D084F0010401203B498C
:102E6000096808703B4801683848006800F0FCF8C1
:102E700054B100202A4909680870B8F1000F0DD03C
:102E800080464FF0010909E00120254909680870D2
:102E9000B9F1000F02D080464FF00009204A1268B5
:102EA00050681F4A12685268126811698847E0B971
:102EB000264800680078012817D100BF184A126818
:102EC0005068174A126852681268116988470028CA
:102ED000F4D01E480068407808B9012000E00020C6
:102EE0001A490968487084F001041B4828231A46CF
:102EF0005F210090A020FDF717FF05220023134853
:102F0000006800F0DFF896E6566F6C204C6F772172
:102F100000000000566F6C20457272210000000016
:102F2000000000200000000000001240000000002F
:102F300000001640666666666666064066666666F9
:102F400066660E406666666666662540040000207A
:102F50000000774408000020BA910008044901608D
:102F60004FF48061018103A14160012181727047AA
:102F7000052C00085441534B5F53435245454E00C6
:102F8000FEF7B0FAFFF7C8FA00BF1D480078401CF2
:102F90001B4908701B480078401C1A4908701A48E1
:102FA0000078401C1849087018480078401C1749E0
:102FB000087001201649087011480078052805D1CD
:102FC00000200F4908700120124908700D48007850
:102FD000192802D100200B4908700B4800783228CC
:102FE00005D100200849087001200B490870FEF740
:102FF000A3FF022200230948006800F063F8C4E739
:103000001C0100201D0100201E0100201F010020C6
:10301000C6000020C5000020C400002004000020DD
:10302000044901604FF48061018103A141600021E6
:1030300081727047812F00085441534B5F42414CCD
:10304000414E434500000000704701460020704794
:1030500070477047704770B505460C46206810B140
:10306000206804F055FD70BD70B505460C4620681B
:1030700010B1206804F0D6FC70BD38B505460C468A
:10308000207C00900022D4E90203616804F083FCF4
:10309000206038BD70B505460C4614B1204604F0DA
:1030A00043FB70BD70B505460C4614B1204604F0D4
:1030B00027FA70BD00210170417041608160C160DC
:1030C0000161704770B5064614461D46204604F05F
:1030D000DBFA70BD7CB505460C460121A07ACDE92E
:1030E000000123890022D4E9001004F0E0F97CBD3E
:1030F000704770477047014670477047704700003F
:1031000001490160704700000CAC000870470000E6
:10311000014901607047000024AC000810B5044666
:103120000122D4E9010102F02AFB10BD10B50446CA
:10313000D4E9010102F028FB10BD000010B50446DF
:1031400040F6044003F076FC4FF4C04300221146E1
:10315000214802F021FB40F6014003F06BFC4FF4E4
:103160004073012211461D4802F016FB4FF44073D4
:1031700002220021194802F036FB01224FF440716F
:10318000164802F0FCFA40F6014003F053FC4FF4FD
:10319000704301221146114802F0FEFA4FF47043C9
:1031A000022200210D4802F01EFB4FF4406003F0A4
:1031B00041FC072300220121094802F0EDFA072310
:1031C00002220021064802F00EFB012207210448DA
:1031D00002F0D5FA10BD00000010024000040240C9
:1031E0000000024010B504460022D4E9010102F0BB
:1031F000C6FA10BD10B50446D4E9010102F0BDFACB
:1032000010BD0000034B036000BF034B036041602F
:1032100082607047DCAB00083CAC000810B5044687
:103220006068026851698847A068026851698847E8
:10323000E0680268516988472069026851698847D7
:103240006069026851698847A069026851698847C6
:10325000206B01680A684FF4E1319047606B0168A8
:103260000A684FF4E1319047A06B02681168884703
:10327000E06B026811688847206C02681168884713
:10328000606C026811688847A06C02681168884702
:10329000E06C02681168884710BD00002DE9FC5FF2
:1032A0000446002020700C2000F050FD05464FF42D
:1032B00080427149FFF7A6FF054660600C2000F0D0
:1032C00045FD05464FF400526B49FFF79BFF05464D
:1032D000A0600C2000F03AFD05464FF4807267496B
:1032E000FFF790FF0546E0610C2000F02FFD05463A
:1032F0004FF400726149FFF785FF054620620C20FC
:1033000000F024FD05464FF480525C49FFF77AFF38
:103310000546E0600C2000F019FD05464FF4005210
:103320005649FFF76FFF054620610C2000F00EFDA7
:1033300005464FF480425149FFF764FF054660613E
:103340000C2000F003FD05464FF400424B49FFF707
:1033500059FF0546A0610C2000F0F8FC054602224A
:103360004749FFF74FFF054660620C2000F0EEFC76
:10337000054601224249FFF745FF0546A0620C20A1
:1033800000F0E4FC054604223D49FFF73BFF0546FB
:10339000E062442000F0DAFC8046C3465846FFF75E
:1033A000B7FE83463748CBF8000000BFD846C4F8C4
:1033B00030B0442000F0CAFC8146CB465846FFF7A7
:1033C000A7FE83463048CBF8000000BFD946C4F8BA
:1033D00034B0242000F0BAFC06462C49016000BF3E
:1033E0002B49016000BFA0630C2000F0AFFC074632
:1033F000002100F0E7FA074620640C2000F0A6FC4C
:103400000746012100F0DEFA0746E063082000F0DD
:103410009DFC8246D3465846FFF772FE83461D4800
:10342000CBF8000000BFDA46C4F844B0082000F032
:103430008DFC834601905846FFF762FE834616488E
:10344000CBF8000000BFCDF804B0C4F848B00820A5
:1034500000F07CFC834600905846FFF751FE8346FF
:103460000E48CBF8000000BFCDF800B0C4F84CB057
:103470002046BDE8FC9F000000100240000402400E
:1034800000000240ACAB0008C4AB0008FCAB000875
:103490005CAC00089CAC000884AC0008B4AC00082C
:1034A00000BF0522002302480068FFF70BFEF8E783
:1034B00004000020044901604FF48061018103A1F0
:1034C0004160012181727047A13400085441534B7F
:1034D0005F4D50550000000010B58AB004464FF40F
:1034E000406003F0A7FA41F2081003F0A3FA40F697
:1034F000164003F09FFA4FF4403000F087FFF023AE
:1035000000220321424802F047F90021414801F01E
:10351000CAF84148019001200290201D039000202C
:1035200004904FF4805005900020079004200890EC
:10353000C003099001AA0021364801F047FA002291
:103540001146344801F07CF80021324801F09BF824
:103550000021304801F064F8002001F04FF801220A
:1035600002212D484C3801F01BF8012211022A4893
:103570004C3801F015F8002127484C3800F058FF6E
:103580000422012124484C3800F016FF01230422B4
:10359000002121484C3800F09BFF012305221946E9
:1035A0001D484C3800F094FF0123062202211A48DE
:1035B0004C3800F08DFF01230722032116484C38B8
:1035C00000F086FF0022012113484C3800F068FF0C
:1035D0000022012110484C3800F048FF0E484C38BA
:1035E00000F036FF0C484C3800F02DFF0A484C38EC
:1035F00000F033FF012004F047F807484C3800F092
:10360000C6FE012104484C3800F0B8FF0AB010BDD6
:1036100000000240006402404C20014010B52DED36
:10362000068B0446606805F0AFFA41EC1A0B9FED7B
:103630002F0B53EC102B05F009F941EC190B9FED02
:103640002D0B53EC102B05F0EFFA41EC180B05F0A5
:1036500017F86061A06805F097FA41EC1A0B9FED2E
:10366000230B53EC102B05F0F1F841EC190B9FEDF7
:10367000210B53EC102B05F0D7FA41EC180B04F09A
:10368000FFFFA061E06805F07FFA41EC1A0B9FEDA7
:10369000170B53EC102B05F0D9F841EC190B9FEDEB
:1036A000150B53EC102B05F0BFFA41EC180B04F08E
:1036B000E7FFE061206905F067FA41EC1A0B9FED26
:1036C0000B0B53EC102B05F0C1F841EC190B9FEDDF
:1036D000090B53EC102B05F0A7FA41EC180B04F082
:1036E000CFFF2062BDEC068B10BD00000000000083
:1036F0000000B040666666666626424010B5044625
:1037000000200549096808700448016802480068FB
:10371000FFF7A1FC10BD00000400002008000020FD
:103720000449416004A181604FF4FA71C160022133
:1037300001747047FD36000854494D455231000070
:1037400010B588B004464FF4406003F073F94FF4AD
:10375000706300220221504802F01EF84FF470639B
:10376000022200214C4802F03EF84FF47062012121
:10377000494801F0D3FF4FF4885003F05BF94FF054
:10378000807003F08DF94548007828B9444804F06A
:1037900059FC0120414908700121414804F01CFEF8
:1037A0000920ADF804000020ADF80600ADF80800CF
:1037B00040F2E73003900020ADF80A008DF81000C9
:1037C00001A9374804F006FD0020ADF818000120DB
:1037D000ADF814000020ADF81A00ADF81600ADF8F1
:1037E0001C00ADF81E0005AA00212D4804F0C0FA07
:1037F00005AA01212A4804F0BBFA05AA022128489B
:1038000004F0B6FA05AA0321254804F0B1FA002213
:103810001146234804F0CFFB00220121204804F088
:10382000CAFB002202211E4804F0C5FB002203212E
:103830001B4804F0C0FB60220021194804F08EFBF5
:1038400060220121164804F089FB602202211448FD
:1038500004F084FB60220321114804F07FFB002266
:1038600011460F4804F0BAFB002201210C4804F075
:10387000B5FB002202210A4804F0B0FB002203211C
:10388000074804F0ABFB064804F040FA044804F093
:103890009BFC08B010BD000000000240B6100020E4
:1038A0000000014070B505460C46287A10B1012889
:1038B0007ED13FE0002C1EDD00221146404804F07E
:1038C0007AFB602200213E4804F048FB00221146AA
:1038D0003B4804F083FB22460121394804F06BFB8E
:1038E00060220121364804F039FB002201213448CE
:1038F00004F074FB1DE062420021314804F05BFBE0
:10390000602200212E4804F029FB002211462C4899
:1039100004F064FB00220121294804F04CFB6022E2
:103920000121274804F01AFB00220121244804F059
:1039300055FB42E0002C1EDD22460221204804F007
:103940003AFB602202211E4804F008FB00220221FB
:103950001B4804F043FB00220321194804F02BFB11
:1039600060220321164804F0F9FA002203211448CA
:1039700004F034FB1FE000220221114804F01BFB7D
:10398000602202210E4804F0E9FA002202210C48CC
:1039900004F024FB62420321094804F00CFB60227E
:1039A0000321074804F0DAFA00220321044800E06A
:1039B00002E004F013FB00E000BF00BF70BD000098
:1039C00000000140034A026000BF034A0260017226
:1039D000704700000CAC00086CAC000810B586B055
:1039E000044641F2010003F025F840F6024003F0DE
:1039F00021F8C023002202212D4801F0CDFEC02372
:103A0000022200212A4801F0EEFEC02202212848AD
:103A100001F084FE274804F015FB0020ADF80000FB
:103A20006020ADF802000020ADF804004FF6FF70F2
:103A300002900020ADF806008DF80C0069461D4884
:103A400004F0C8FB0320ADF816000A20ADF8100002
:103A50000020ADF814000120ADF8120004AA0021E6
:103A6000144804F003FC04AA0121124804F0FEFBF0
:103A70000A231A4603210F4804F0BAFC00210D481E
:103A800004F0DDFA02210B4804F097FC04210948F8
:103A900004F093FC0121074804F08BFC0621054843
:103AA00004F087FC034804F08FFB06B010BD000053
:103AB000000802400004004070B505460024054897
:103AC00004F0B9FA04B20021024804F0B8FA204622
:103AD00070BD00000004004010B586B0044641F2FD
:103AE000020002F0A7FF40F6034002F0A3FF4FF4EC
:103AF0004053002202212E4801F04EFE4FF4405365
:103B0000022200212A4801F06EFE4FF440520221A9
:103B1000274801F003FE274804F094FA0020ADF88E
:103B200000006020ADF802000020ADF804004FF660
:103B3000FF7002900020ADF806008DF80C00694679
:103B40001C4804F047FB0320ADF816000A20ADF82E
:103B500010000020ADF814000120ADF8120004AAF6
:103B60000021144804F082FB04AA0121114804F04A
:103B70007DFB0A231A4603210E4804F039FC00217C
:103B80000C4804F05CFA02210A4804F016FC0421F7
:103B9000084804F012FC0121064804F00AFC062142
:103BA000044804F006FC034804F00EFB06B010BD08
:103BB000000C02400008004070B50546002405488E
:103BC00004F039FA04B20021024804F038FA6042E5
:103BD00000B270BD0008004010B588B0044640F641
:103BE000044002F027FF202300220221304801F088
:103BF000D3FD2023022200212D4801F0F4FD2022D4
:103C000003212B4801F08AFD41F2101002F012FF4F
:103C10004FF0807002F044FF2648007828B926480B
:103C200004F010FA0120234908700121224804F011
:103C3000D3FB44F61F60ADF804000020ADF8060089
:103C4000ADF80800632003900020ADF80A008DF85D
:103C5000100001A9184804F0BDFA0020ADF81800C2
:103C60000120ADF814000020ADF81A00ADF81600E0
:103C7000ADF81C00ADF81E0005AA00210E4804F0A6
:103C800077F8002211460C4804F095F960220021D3
:103C9000094804F063F900221146074804F09EF930
:103CA000054804F033F8044804F08EFA08B010BD5B
:103CB00000100240B61000200040014070B50546DB
:103CC0000C4622460021074804F075F960220021C5
:103CD000044804F043F900221146024804F07EF93A
:103CE00070BD00000040014030B52DED028B85B065
:103CF0000546B0EE408A00249FED120AC0EE088A05
:103D0000B0EE680A00F04AFAF7EE000A30EE600AF8
:103D1000BCEEC00A10EE100A84B2ADF804400020D8
:103D2000ADF80600ADF808000394ADF80A008DF870
:103D3000100001A9044804F04DFA05B0BDEC028B57
:103D400030BD000020BC3E4D0040014010B50400D5
:103D500007D1012405E0FCF7CBFB006800B904485B
:103D600080472046FCF7C8FB0028F4D010BD0000B7
:103D70009F0600084100080218BF04200A0E18BF61
:103D800040F001004FF07F4232EA010108BF40F0ED
:103D90000200012808BF05207047000010B5002868
:103DA00004DB0A07130E054A135406E00A07140E33
:103DB000034A00F00F031B1FD45410BD00E400E0C1
:103DC00018ED00E010B54FF00E402DED028BB0EE77
:103DD000408A18EE104A00EB4400B0F1506F4AD808
:103DE0004FF0FC40B0EB440F22D2B0EEC80AF7EE21
:103DF000000A30EEC00AF6EE000A60EE208A18EEE5
:103E0000900A03F0BAFE01EE100A14F0004F1DBF35
:103E1000DFED2D0A9FED2D0AB1EE411ADFED2C0AE0
:103E200008BF9FED2C0AF8EE001A21EE218A05E06A
:103E3000DFED290A68EE088AB0EE600A9FED271AC6
:103E4000DFED271A30EE080A48EE811A9FED251A99
:103E500008EEA11ADFED241A48EE811A9FED231A0D
:103E600008EEA11A68EE281ABDEC028B01EE810A59
:103E700030EE200A10BD4FF0E440B0EB440F0CD9F7
:103E800018EE100AFFF776FF042808BF00F0B2F919
:103E9000B0EE480ABDEC028B10BD4FF07F40B0EB96
:103EA000440F07D2B0EE480ABDEC028BBDE81040CB
:103EB00000F091B90120FCF7CAFBBDEC028BBDE814
:103EC000104000F08FB900000000C9BF22AAFDB960
:103ED0000000C93F22AAFD390000000024FE1C3D5D
:103EE000C78AD83C1E67383D1B93993DAFAA2A3E2E
:103EF00070B54FF068422DED048BF0EE408A18EE5D
:103F0000900AB0EE608A18EE101A02EB4003B3F18B
:103F1000654F3CBF02EB4102B2F1654F7DD200BF5D
:103F2000C0F3C753C1F3C7529A1A1B2A09DD10F018
:103F3000004F14BF9FED830A9FED830ABDEC048BF5
:103F400070BD12F11A0F36DA11F0004F09D010F0DF
:103F5000004F0CBF9FED7D0A9FED7D0ABDEC048BE9
:103F600070BD88EE889A19EE100AFFF703FF042847
:103F700008BF00F03FF918EE900AFFF7FBFE054678
:103F800018EE100AFFF7F6FE044619EE100AFFF7C6
:103F9000F1FE042D18BF052D08D1042C18BF052CE7
:103FA00004D1002804BF0220FCF751FBB0EE490AFF
:103FB000BDEC048B70BD4200B2EB410F3AD910F05A
:103FC000004F19BFDFED630A9FED630ADFED630A5F
:103FD0009FED630AB0EE481A0A46B1EE688A80F097
:103FE0000041F0EE418A10460A1A5200B2F1807F79
:103FF00034D2484010F0004FDFED5A1A9FED5A2A94
:104000001DBFBEEE001A70EEE10A30EE420AB6EEB7
:10401000001A08BF70EEA10A00E040E008BF30EED1
:10402000020AB0EE682A01EE482A08EE818AC2EE42
:10403000081A15E011F0004F04BF9FED4C0AF0EE96
:10404000400AD1D010F0004F19BFDFED490A9FEDB3
:10405000490ADFED490A9FED490AC5E7C8EE881A0B
:1040600021EEA11A9FED462ADFED462A41EE022AF3
:104070009FED452A01EE222ADFED442A41EE022A75
:104080009FED432ABDEC048B01EE222A21EE811A1A
:1040900001EE020A30EE210A30EE200A70BD4FF028
:1040A0007F42B2EB400F28BFB2EB410F09D2F0EED6
:1040B000480AB0EE680ABDEC048BBDE8704000F021
:1040C0008DB840EA01035B0008BF41F0FF410BD00F
:1040D000B2EB400F08BFB2EB410F08D120F0804097
:1040E00008EE900A21F0804108EE101A18E7B2EBB2
:1040F000400F12BF5FEA410340F0FF4001F0004172
:104100003FF40EAFB2EB410F12BF5FEA400200F086
:10411000004041F0FF413FF403AF4A0092EA400300
:104120003FF5FEAE002AACBF9FED1A0A9FED1A0ABA
:1041300068EE808A28EE008A18EE900A18EE101AAF
:10414000EEE60000DB0FC9BFDB0FC93FDB0F4940C4
:10415000DB0F49C00000C9BF22AAFDB90000C93F5A
:1041600022AAFD390060ED3EC30ACE3700000000F0
:10417000000049C022AA7DBA0000494022AA7D3A27
:104180002DAD65BD8FB8D53D0FB511BE61C84C3E94
:10419000A8AAAABE0000804F0000802F10B52DED08
:1041A000028BB1EEC08A18EE100A20F00040C0F178
:1041B000FF40C00F0AD010EE100A20F00040C0F1FE
:1041C000FF40C00F04BF0120FCF741FAB0EE480ADF
:1041D000BDEC028B10BD30EE000A704730EE200AB5
:1041E00070470000DFED020A80EEA00A7047000071
:1041F000000000009FED020A20EE000A7047000058
:1042000000000010014609B900207047C8B220B173
:10421000C8B20E4A105C401CF7E701F47F4028B199
:104220000A48C1F30722805C0930EEE701F47F0001
:1042300028B10648C1F30742805C1130E5E7034826
:1042400000EB116000781930DFE7000082AA000857
:1042500010B50948FFF722F80848FFF761FA084847
:10426000FEF77CFE0748FEF7DBFE0748FEF73CFB47
:104270000648FFF71FF910BDB81100201C120020DE
:10428000301200203C12002048120020541200205E
:104290002DE9FC5F04468B4615461E46DDE90C9A67
:1042A000DDE90E7804F114004060006000BF1C34AA
:1042B0006560A660C4F80C90C4F810A02321D4E96E
:1042C000030202F069FED4E9033C63441A1F0F4B5A
:1042D000D4E9010102F0C8FC2060A77667760020CF
:1042E000E061C4F82080C4F82480606120766065B5
:1042F000A0651C3C00902346054A2146019004F12C
:10430000440003F077FB0020BDE8FC9F59750008CE
:10431000997700082DE9F04704460E46174698465F
:10432000DDF8209084F80990607A20F00100607236
:10433000E66127620020A062C4F82480002506E020
:1043400004F1140101EBC50002F025FD6D1C012DE7
:10435000F6DBBDE8F08770B50546002406E005F100
:10436000140101EBC40002F057FD641C012CF6DBC4
:1043700070BD70B50446FBF7B3FF0546206F10B162
:104380002046216F88472846FBF7AEFF70BD816845
:1043900041F00801816000BF816801F00801002937
:1043A000FAD1816841F00401816000BF816801F0A9
:1043B00004010029FAD1704730B5012902D0022941
:1043C00020D10FE06AB1102A0BD8C36A23F470031E
:1043D000C362C36A541E4FF4700505EA04542343B4
:1043E000C36210E06AB1042A0BD8836B23F4401334
:1043F0008363836B541E4FF4401505EA0454234332
:10440000836300E000BF00BF30BD000006490968BB
:1044100021F4E021054AC2F804131146D1F804132F
:104420000143C2F8041370470423014000200140F7
:1044300021B1826842F40062826003E0826822F463
:10444000006282607047816841F4807181607047CA
:10445000816841F4007181607047816801F0010159
:1044600019B9816841F0010181607047012902D0CA
:10447000022912D108E0836823F0405383608368E7
:1044800043EA0273836009E0836823F44013836086
:10449000836843EA0253836000E000BF00BF7047B7
:1044A000012902D0022910D107E0836823F070634C
:1044B000836083681343836008E0836823F4702378
:1044C000836083681343836000E000BF00BF7047D0
:1044D000F0B51D4606290CDA436B01EB81071F2658
:1044E000BE40B34301EB810602FA06F63343436351
:1044F00022E00C290EDA036B8E1F06EB86071F26BF
:10450000BE40B3438E1F06EB860602FA06F633431F
:10451000036311E010290FDAC36AA1F10C0606EB60
:1045200086071F26BE40B343A1F10C0606EB8606A4
:1045300002FA06F63343C3620A2A0CDA046902EB74
:1045400042070726BE40B44302EB420605FA06F6D0
:104550003443046111E0122A0FDCC468A2F10A0698
:1045600006EB46070726BE40B443A2F10A0606EB57
:10457000460605FA06F63443C460F0BD012902D0B0
:1045800002290AD104E0826842F08042826005E09C
:10459000826842F48002826000E000BF00BF704782
:1045A000AAB101F480731BB1436843F48073436084
:1045B00001F480631BB1436843F48063436001F0FE
:1045C0000203CBB1836843F00203836014E001F47B
:1045D00080731BB1436823F48073436001F48063EC
:1045E0001BB1436823F48063436001F002031BB1F5
:1045F000836823F00203836070470000064909685E
:1046000021F01F01054AC2F804131146D1F8041322
:104610000143C2F804137047042301400020014005
:1046200010B501EB4102D30000F11002D25842F064
:10463000010301EB4102D40000F11002135110BD3F
:1046400030B5134601EB4104E50000F11004625956
:1046500022F0606242EA436201EB4104E50000F1AE
:104660001004625130BD10B501EB4102D30000F1DE
:104670001002D25822F4807301EB4102D40000F101
:104680001002135110BD10B501EB4102D30000F12F
:104690001002D25842F4807301EB4102D40000F1C1
:1046A0001002135110BD10B501EB4102D30000F10F
:1046B0001002D25822F0010301EB4102D40000F1B4
:1046C00010021351002301EB4102D40000F110024B
:1046D000135101EB4102D40000F11402135101EB1C
:1046E0004102D40000F11802135101EB4102D40041
:1046F00000F11C02135101EB4102D40000F1200231
:10470000135101EB4102D40000F12402135104299A
:104710000CDA01EB41025300C1F3400203EB8203C8
:104720003D229A4083681A4382600DE00A1FD1B28D
:1047300001EB41025300C1F3400203EB82033D222F
:104740009A40C3681A43C26010BD30B5802A0DD0AC
:1047500001EB4103DC0000F110031B59134301EB93
:104760004104E50000F1100463510CE001EB41034A
:10477000DC0000F124031B59134301EB4104E50065
:1047800000F12404635130BD10B504290CDA01EBAB
:1047900041035C00C1F3400304EB830302FA03F31B
:1047A0008468234383600DE00B1FD9B201EB410302
:1047B0005C00C1F3400304EB830302FA03F3C46813
:1047C0002343C36010BDF0B50346002500260C4608
:1047D000042979DA082A34D004DC012A07D0042A13
:1047E00070D119E0102A41D0202A6BD153E001EB9F
:1047F00041004700C1F3400007EB800702FA07F0D1
:104800001F6800EA070601EB4100C70003F124001E
:10481000C05900F0800556E001EB41004700C1F3AC
:10482000400007EB800702FA07F01F6800EA07065E
:1048300001EB4100C70003F11000C05900F0020570
:1048400041E001EB41004700C1F3400007EB800766
:1048500002FA07F01F6800EA070601EB4100C700F3
:1048600003F11000C05900F004052CE001EB4100F9
:104870004700C1F3400007EB800702FA07F01F680A
:1048800000EA070601EB4100C70003F11000C05920
:1048900000F0080517E001EB41004700C1F34000BC
:1048A00007EB800702FA07F01F6800EA070601EB32
:1048B0004100C70003F11000C05900F0100502E0EC
:1048C00002E0FFE700BF7AE0201FC4B2082A34D01C
:1048D00004DC012A07D0042A6FD119E0102A41D044
:1048E000202A6AD153E004EB44004700C4F340009F
:1048F00007EB800702FA07F05F6800EA070601EBA2
:104900004100C70003F12400C05900F0800555E0C4
:1049100004EB44004700C4F3400007EB800702FAB1
:1049200007F05F6800EA070601EB4100C70003F1EA
:104930001000C05900F0020540E004EB44004700BD
:10494000C4F3400007EB800702FA07F05F6800EA53
:10495000070601EB4100C70003F11000C05900F049
:1049600004052BE004EB44004700C4F3400007EBD0
:10497000800702FA07F05F6800EA070601EB4100D2
:10498000C70003F11000C05900F0080516E004EB61
:1049900044004700C4F3400007EB800702FA07F029
:1049A0005F6800EA070601EB4100C70003F1100051
:1049B000C05900F0100501E0FFE700BF00BF16B1CD
:1049C0000DB10120F0BD0020FCE7000070B501EB47
:1049D0004104E50000F12404645924F0040501EBCE
:1049E0004104E60000F12404A55101EB4104E60076
:1049F00000F118041568A55101EB4104E60000F12F
:104A00001C049568A55101EB4104E60000F1140473
:104A1000D569A55101EB4104E50000F1100463598B
:104A20003F4C2340146944EA8404156A2C43956979
:104A30002C43234301EB4104E50000F110046351D2
:104A4000546874B901EB4104E50000F110046459A5
:104A500044F4007501EB4104E60000F11004A55197
:104A60001FE05468012C0ED101EB4104E50000F178
:104A70001004645924F4007501EB4104E60000F1D0
:104A80001004A5510DE001EB4104E50000F1100414
:104A9000645944F4004501EB4104E60000F11004C0
:104AA000A551D46874B901EB4104E50000F110048C
:104AB000645944F4806501EB4104E60000F1100400
:104AC000A5510DE001EB4104E50000F1100464592B
:104AD00024F4806501EB4104E60000F11004A551C7
:104AE000546974B901EB4104E50000F11004645904
:104AF00044F4807501EB4104E60000F11004A55177
:104B00000DE001EB4104E50000F11004645924F4C8
:104B1000807501EB4104E60000F11004A55170BD61
:104B20003F87FCFF0021016001214160002181607D
:104B30000121C160002101610121416100218161E8
:104B4000C1610162704738B5044664B120208DF818
:104B5000000028208DF8010030208DF80200382058
:104B60008DF8030004E0A32204216846FBF7A2FCB1
:104B70006A46042140F69E2001F0E0FD01F0C4F9F0
:104B800038BD00003EB5044602208DF80000CA2062
:104B90008DF80100E3208DF8020009208DF8030054
:104BA0006A460421682001F0C9FDA3208DF80000A9
:104BB00004F0400048B1C0208DF80100C8208DF8F5
:104BC0000200C2208DF8030006E0A3208DF801004A
:104BD0008DF802008DF8030004F4C07048B1C420C1
:104BE0008DF80400CC208DF80500C6208DF8060055
:104BF00006E0A3208DF804008DF805008DF806006E
:104C0000A3208DF807008DF808008DF809006A468A
:104C10000A2140F6A72001F091FD04F0030018B12D
:104C200020208DF8000002E0D8208DF800006A46B0
:104C3000012140F6B62001F081FD04F0200018B1FA
:104C4000012000F0ADF802E0002000F0A9F804F423
:104C5000C07008B304F4807060B1B2208DF8000019
:104C60008B208DF80100B6208DF802009B208DF876
:104C700003000BE0B0208DF8000080208DF80100CB
:104C8000B4208DF8020090208DF803006A460421BC
:104C900040F6A22001F052FD04F0010020B3F820FC
:104CA0008DF800006A4601214FF40B6001F046FDCB
:104CB000FA21072000F02CFC072000F0F3FB012074
:104CC00000F013FC642000F003FD4FF4FA7000F0D4
:104CD00012FDC821304800F0A3FB282000F0BCFBE7
:104CE0000A2000F0CCFB08E0D8208DF800006A46CE
:104CF00001214FF40B6001F021FD04F0020018B116
:104D0000D9208DF8000002E0D8208DF800006A4616
:104D1000012140F23D7001F011FD04F0040018B1D2
:104D2000012000F069F802E0002000F065F804F0CE
:104D3000100018B10120FFF706FF02E00020FFF786
:104D400002FF44F008001549488101F0DDF8002019
:104D50001249887304F0400018B10846807B801D1A
:104D6000887304F4C07020B10C48807B801D0B490F
:104D7000887304F0140020B10848807B1030074984
:104D8000887304F0030020B10448807B001D0349B0
:104D9000887300203EBD000009E3CA02FC12002017
:104DA0003EB504466CB10EA1D1E900208968CDE979
:104DB000002002916A4609214FF4976001F0BEFC81
:104DC0003EBD0AA2D2E900109268CDE9010200912D
:104DD0006A4609214FF4976001F0B0FCF0E700004B
:104DE000B8AAB38DB4980D355D000000B8AAAAAA80
:104DF000B088C3C5C700000038B5044664B1C02000
:104E00008DF80000C2208DF80100C4208DF802004A
:104E1000C6208DF8030004E08B2204216846FBF7CE
:104E200049FB6A46042140F6982001F087FC01F016
:104E30006BF838BD10B5C8234FF48062024940F6C4
:104E4000F63000F0F5FE10BD8C9E00082DE9F04F05
:104E50008DB00746884615469946DDE9166B002455
:104E6000002030806B49887B5A4605A900F0ACFFD2
:104E700018B1601E0DB0BDE8F08F6648807A00F072
:104E80001400002867D09DF8140000069DF8151046
:104E900040EA01409DF8161040EA01209DF81710E5
:104EA000084328609DF8180000069DF8191040EA94
:104EB00001409DF81A1040EA01209DF81B1008439C
:104EC00068609DF81C0000069DF81D1040EA014036
:104ED0009DF81E1040EA01209DF81F100843A860AD
:104EE0009DF8200000069DF8211040EA01409DF841
:104EF000221040EA01209DF823100843E86004F1E5
:104F00001000C4B228680014019068680014029070
:104F1000A86800140390E8680014049001984043C6
:104F2000029901FB0100039901FB0100049901FBB7
:104F3000010ABAF1706F02DBBAF1885F05DD00F09B
:104F4000E3FF00203080401E94E7B6F9000040F4F3
:104F50008070308000BF2F48807A00F0400020B37E
:104F600005A9601C085C095D40EA012000B2A8F8B0
:104F7000000005A9E01C095C05AAA01C105C41EA20
:104F8000002000B2A8F8020005A9601D095C201DE0
:104F9000105C41EA002000B2A8F80400A01DC4B2D1
:104FA000B6F9000040F0080030801A48408900F44B
:104FB000C07008B305A9601C085C095D40EA0120C7
:104FC00000B2388005A9E01C095C05AAA01C105C91
:104FD00041EA002000B2788005A9601D095C201D0F
:104FE000105C41EA002000B2B880A01DC4B2B6F93E
:104FF000000040F0700030800648807A00F0030026
:1050000018B105A90819FCF78FFE484601F0D6FB38
:1050100000202FE7FC12002070B588B0064601A8DA
:1050200000F0CAFCBDF804000021C90341EA504564
:10503000C4034448007A00F0030056F820000590AD
:105040004048007A00F0040010B1059840420590F5
:105050003C48007AC0F3C10056F820000690394859
:10506000007A00F0200010B10698404206903548C2
:10507000007AC0F3811056F820000790314800896B
:1050800000F4807010B10798404207900598C1174E
:10509000A0FB042301FB043100FB0510810041EA61
:1050A000927005900698C117A0FB042301FB043100
:1050B00000FB0510810041EA927006900798C11725
:1050C000A0FB042301FB043100FB0510810041EA31
:1050D000927007900598000E8DF808000598000C56
:1050E0008DF809000598000A8DF80A000598C0B2ED
:1050F0008DF80B000698000E8DF80C000698000C39
:105100008DF80D000698000A8DF80E000698C0B2C2
:105110008DF80F000798000E8DF810000798000C0E
:105120008DF811000798000A8DF812000798C0B298
:105130008DF8130002AA0C214FF4257001F0FEFA3D
:1051400008B070BDFC12002030B585B0044616A230
:1051500007CA02AB07C3C82C03DD4FF0FF3005B010
:1051600030BDC82090FBF4F0401E85B2280A8DF8AF
:105170000000E8B28DF801006A46022140F21620D4
:1051800001F0DCFA10B14FF0FF30E8E702AA0C2181
:1051900040F6C12001F0D2FA10B14FF0FF30DEE747
:1051A000044884810020DAE7FEF2ABC4AAF1DFDF15
:1051B000BBAFDFDFFC1200201FB504464848007A71
:1051C00000F0030054F8200001904548007A00F0F8
:1051D000040010B10198404201904148007AC0F3A8
:1051E000C10054F8200002903D48007A00F02000F1
:1051F00010B10298404202903948007AC0F3811001
:1052000054F8200003903648008900F4807010B1F3
:105210000398404203903349019880FB0101800FBD
:1052200040EA810001902F49029880FB0110820022
:1052300042EA917002902B49039880FB0110820092
:1052400042EA917003900198000E8DF800000198D9
:10525000000C8DF801000198000A8DF802000198F9
:10526000C0B28DF803006A4604214FF4747001F057
:1052700065FA18B14FF0FF3004B010BD0298000E6F
:105280008DF800000298000C8DF801000298000AC9
:105290008DF802000298C0B28DF803006A4604211E
:1052A0004FF4757001F04AFA10B14FF0FF30E3E7A8
:1052B0000398000E8DF800000398000C8DF8010093
:1052C0000398000A8DF802000398C0B28DF803001D
:1052D0006A4604214FF4767001F030FACCE7000002
:1052E000FC12002009E3CA0210B586B0044647A0AC
:1052F0000068039046A00068029046A000680190F4
:1053000045A00068009004F0030003A9085C8DF834
:10531000140003A8C4F3C101405C8DF8150003A874
:10532000C4F38111405C8DF8160004F0030002A95B
:10533000085C8DF8100002A8C4F3C101405C8DF830
:10534000110002A8C4F38111405C8DF8120005AA77
:10535000032140F2264001F0F1F918B14FF0FF307F
:1053600006B010BD04AA032140F22A4001F0E6F97C
:1053700010B14FF0FF30F3E70198059000980490CA
:1053800004F0040058B19DF8140040F001008DF8BD
:1053900014009DF8100040F001008DF8100004F09A
:1053A000200058B19DF8150040F001008DF815005F
:1053B0009DF8110040F001008DF8110004F4807098
:1053C00058B19DF8160040F001008DF816009DF8C8
:1053D000120040F001008DF8120005AA03214FF4DD
:1053E000886001F0ABF910B14FF0FF30B8E704AAC4
:1053F000032140F2314001F0A1F910B14FF0FF302C
:10540000AEE7064804810020AAE700004CCD6C00FE
:105410000CC92C003656760026466600FC12002089
:10542000F8B505460E464FF47A7095FBF0F000FB98
:1054300006F4200E8DF80000200C8DF80100200AE3
:105440008DF80200E0B28DF803006A4604214FF4A3
:10545000AE7001F073F9F8BD38B50446052094FB31
:10546000F0F084B220128DF80000E0B28DF8010057
:105470006A4602214FF4AD7001F060F938BD38B5CD
:105480000446052094FBF0F084B220128DF8000051
:10549000E0B28DF801006A4602214FF4AC7001F0D1
:1054A0004DF938BD38B504460020009004F00100E5
:1054B00020B19DF8000040F03000009004F00200A0
:1054C00020B19DF8000040F00C00009004F00400B2
:1054D00020B19DF8000040F0030000906A460121D1
:1054E0004FF4A47001F02AF938BD38B50446012CF8
:1054F00001DA012402E0042C00DD0424601EC0B2A5
:1055000000906A46012140F24F1001F017F938BDB2
:10551000F0B52DED028B83B006460F4606F007006E
:1055200010B1B7F5C86F05DD4FF0FF3003B0BDEC2B
:10553000028BF0BD00EE107AB8EE400ADFED5B0A98
:1055400080EE208A01A800F011FA9DF804000228DC
:1055500006D0042817D0082828D010284CD138E0CD
:105560009FED530A28EE000ABCEEC00A10EE100AA6
:1055700084B29FED500A28EE000ABCEEC00A10EE7D
:10558000100A85B23BE09FED4C0A28EE000ABCEE03
:10559000C00A10EE100A84B29FED480A28EE000AF5
:1055A000BCEEC00A10EE100A85B228E09FED440A56
:1055B00028EE000ABCEEC00A10EE100A84B29FED7D
:1055C000410A28EE000ABCEEC00A10EE100A85B2AD
:1055D00015E09FED3D0A28EE000ABCEEC00A10EE71
:1055E000100A84B29FED390A28EE000ABCEEC00A08
:1055F00010EE100A85B202E04FF0FF3096E700BFD0
:1056000020128DF80800E0B28DF8090028128DF8FC
:105610000A00E8B28DF80B0006F00100A0B102AA62
:1056200002214FF4EA7001F089F810B14FF0FF3019
:105630007CE70DF10A0202214FF4927001F07EF82E
:1056400010B14FF0FF3071E706F00200A0B102AADE
:1056500002214FF4EC7001F071F810B14FF0FF30FF
:1056600064E70DF10A0202214FF4947001F066F82C
:1056700010B14FF0FF3059E706F00400A0B102AAC4
:1056800002214FF4EE7001F059F810B14FF0FF30E5
:105690004CE70DF10A0202214FF4967001F04EF82A
:1056A00010B14FF0FF3041E700203FE700004843D2
:1056B0000000804600004046000000460000C04553
:1056C0000000804500004045000000450000C04447
:1056D00038B50446052094FBF0F085B228128DF809
:1056E0000000E8B28DF801006A4602214FF4EF7025
:1056F00001F024F838BD38B50446052094FBF0F0DD
:1057000085B228128DF80000E8B28DF801006A46D3
:1057100002214FF4ED7001F011F838BDF0B50346E9
:105720001C6A5D6A00200DE00126864016403EB1ED
:1057300087000F26BE40B443860001FA06F63443C4
:10574000461CB0B20828EFD3082011E0012686409D
:1057500016405EB1A0F10806B7000F26BE40B54363
:10576000A0F10806B60001FA06F63543461CB0B2B1
:105770001028EBD31C625D62F0BDC16270470AB1B4
:10578000816100E08162704702461069084008B1FB
:10579000012070470020FCE7F0B504460D46164690
:1057A0002168E268002019E0012787401F409FB16F
:1057B0004FEA400C032707FA0CF7B943470005FAF4
:1057C00007F739434FEA400C032707FA0CF7BA43AF
:1057D000470006FA07F73A43471CB8B21028E3D34C
:1057E0002160E260F0BDF0B50C461546012C03D1F6
:1057F00046681E43466002E046689E4346608268F3
:1058000000210DE001268E401E403EB14F000326D0
:10581000BE40B2434E0005FA06F632434E1CB1B20A
:105820001029EFD38260F0BD29480068FDF742FCE3
:1058300028480068FDF7F2FC274925480068FDF775
:1058400049FC2349096848602148006841682048AC
:105850000068FDF71FFC21491D480068FDF73AFC70
:105860001B490968C8601A480068C1681848006880
:10587000FDF710FC1A4916480068FDF72BFC144987
:105880000968886012480068816811480068FDF75F
:1058900001FC14490E480068FDF71CFC0C4909681E
:1058A00008610B480068016909480068FDF7F2FBD0
:1058B0000D48016806480068FDF7DFFB00BF4FF4A4
:1058C0007A72002302480068FDF7FCFBF7E700004E
:1058D00004000020000000203012002048120020A8
:1058E0003C120020541200200800002010B504468D
:1058F00001F00EF9FFF798FF10BD000070B50446E7
:10590000002624F00104184890F8240008B1002073
:1059100070BD1548807A10B94FF0FF30F8E7124893
:10592000057C807A2040104908740846007CA0421B
:1059300002D04FF0FF3600E0002614B90A48007D7F
:1059400018B10120FCF7B0FA02E00020FCF7ACFA35
:105950003CB100F0D9FA20B1034805744FF0FF3094
:10596000D6E73046D4E70000F41000200146114885
:10597000407A30B1012807D0022808D003280CD182
:1059800008E0022008700BE00420087008E00820FE
:10599000087005E01020087002E04FF0FF307047FB
:1059A00000BF0448C07C18B108784006000E08709B
:1059B0000020F4E7F410002001461348407A30B18B
:1059C000012808D002280AD0032810D10BE04FF498
:1059D000804008800EE041F69C7008800AE04FF499
:1059E0008050088006E04FF40060088002E04FF02D
:1059F000FF30704700BF0448C07C10B108884010D9
:105A000008800020F5E70000F4100020014602485D
:105A1000007C087000207047F410002001460F48F9
:105A2000007A30B1012807D0022809D003280FD10D
:105A30000AE0FA2008800EE04FF4FA7008800AE0CD
:105A40004FF47A70088006E04FF4FA60088002E0B4
:105A50000020088000BF00BF00207047F410002025
:105A600001461248007A30B1012809D002280CD032
:105A7000032814D10EE09FED0E0A81ED000A11E01B
:105A80009FED0C0A81ED000A0CE09FED0B0A81ED01
:105A9000000A07E09FED090A81ED000A02E04FF0DD
:105AA000FF30704700BF0020FBE70000F41000202B
:105AB0000000034300008342333303423333834106
:105AC00001461248C07A082819D2DFE800F016040F
:105AD000070A0D101317BC20088013E0622008800D
